:100000000C9452000C9464000C9464000C946400F2
:100010000C9464000C9464000C9464000C946400D0
:100020000C9464000C9464000C9464000C946400C0
:100030000C9464000C9464000C9464000C946400B0
:100040000C9473010C9464000C9464000C94640090
:100050000C9464000C9464000C9464000C94640090
:100060000C9464000C94640000000000250028003B
:100070002B0000000000240027002A0001020408D1
:100080001020408001020408102001020408102002
:10009000040404040404040402020202020203032E
:1000A0000303030311241FBECFEFD8E0DEBFCDBF93
:1000B00021E0A0E0B1E001C01D92AE33B207E1F74C
:1000C0000E94BD010C94F4020C9400008FE590E0B6
:1000D0000197F1F70895DC01ED91FC911197908162
:1000E00014968C918095892380830895FC01A281C8
:1000F000B3818C919481909598239C93A081B18138
:100100008C919481892B8C930895FF920F931F9368
:10011000CF93DF93F82E062FC8E0D0E010E88F2DA4
:10012000812371F183E291E00E946B000E946600DE
:100130008EE191E00E946B000E9466008EE191E0EA
:100140000E9476001695219751F783E291E00023F3
:10015000E1F00E9476000E9466008EE191E00E942C
:100160006B000E9466008EE191E00E94760083E2BF
:1001700091E0DF91CF911F910F91FF900C946B0054
:1001800083E291E00E947600D1CF0E946B00E3CF22
:10019000DF92EF92FF920F931F93CF93DF93E82E9E
:1001A000DFB6F89489E191E00E9476008BE796E053
:1001B0000197F1F710E000E0F12CCBE7D6E0C701A2
:1001C000002E02C0959587950A94E2F780FF24C01F
:1001D00089E191E00E946B00CE010197F1F70F5F7A
:1001E0001F4F0830110559F789E191E00E946B001B
:1001F000CE010197F1F7CE010197F1F7CE010197FA
:10020000F1F72197F1F7DFBEDF91CF911F910F91A9
:10021000FF90EF90DF90089589E191E00E947600D1
:10022000DBCFEF92FF920F931F93CF93DF9300E00A
:1002300011E0D0E0C0E0E82EF12CC7010C2E02C086
:10024000959587950A94E2F780FF10C0C8010E9437
:100250006B0021960B5F1F4FC530D10571F7DF9101
:10026000CF911F910F91FF90EF900895C8010E94C8
:100270007600EFCFDC0170E0FB01E057FF4F2491E7
:1002800064587F4FFB01649114966C93149730E08F
:10029000220F331FF901EE58FF4F8591949111966B
:1002A0009C938E93F901E859FF4F85919491139691
:1002B0009C938E9312979FB7F8941296ED91FC91B0
:1002C0001397208114968C911497809582238083B4
:1002D000ED91FC911197208114968C918095822349
:1002E00080839FBF08951F920F920FB60F92112423
:1002F0002F933F938F939F93AF93BF9380913A0136
:1003000090913B01A0913C01B0913D0130913901A8
:1003100023E0230F2D3758F50196A11DB11D209321
:10032000390180933A0190933B01A0933C01B09333
:100330003D018091350190913601A0913701B09136
:1003400038010196A11DB11D8093350190933601AE
:10035000A0933701B0933801BF91AF919F918F91D6
:100360003F912F910F900FBE0F901F90189526E888
:10037000230F0296A11DB11DD2CF789484B582605F
:1003800084BD84B5816084BD85B5826085BD85B539
:10039000816085BD80916E00816080936E001092B7
:1003A0008100809181008260809381008091810032
:1003B00081608093810080918000816080938000C3
:1003C0008091B10084608093B1008091B000816021
:1003D0008093B00080917A00846080937A0080914D
:1003E0007A00826080937A0080917A0081608093A5
:1003F0007A0080917A00806880937A001092C10020
:1004000062E089E191E00E943A0163E08EE191E0CF
:100410000E943A0164E083E291E00E943A0165E0C3
:1004200080E091E00E943A0166E085E091E00E9460
:100430003A0167E08AE091E00E943A0168E08FE0CB
:1004400091E00E943A0169E084E191E00E943A0162
:1004500080E00E941101C0E0D0E03FB7F8948091A5
:10046000350190913601A0913701B091380126B540
:10047000A89B05C02F3F19F00196A11DB11D3FBFDC
:100480003FB7F894C0903A01D0903B01E0903C0116
:10049000F0903D013FBF4091310150913201609198
:1004A000330170913401BA2FA92F982F8827820F1A
:1004B000911DA11DB11DE2E0880F991FAA1FBB1F4E
:1004C000EA95D1F7841B950BA60BB70BB7FD14C0AB
:1004D0004053584F6F4F7F4F40933101509332013B
:1004E00060933301709334018091300191E0980F53
:1004F000909330010E94110180912C0190912D0167
:10050000A0912E01B0912F01B701A601481B590BF4
:100510006A0B7B0B77FD17C08896A11DB11D8093D8
:100520002C0190932D01A0932E01B0932F0185E50E
:100530000E94C80085EA0E94C8008FE40E94C8009B
:100540008BE40E94C8008091280190912901A0911C
:100550002A01B0912B01C81AD90AEA0AFB0AF7FC52
:100560003DC04496A11DB11D80932801909329019F
:10057000A0932A01B0932B0183E291E00E946B00CB
:100580008EE191E00E946B000E94660083E291E0A0
:100590000E9476000E9466008EE191E00E94760043
:1005A00061E080EA0E94850061E085EA0E948500A2
:1005B00060E08AE50E94850083E291E00E94760077
:1005C0000E9466008EE191E00E946B000E9466002E
:1005D00083E291E00E946B000E946600209709F47C
:0C05E0003CCF0E94000039CFF894FFCF00
:00000001FF
