:100000000C949D000C94C5000C94C5000C94C50084
:100010000C94C5000C94C5000C94C5000C94C5004C
:100020000C94C5000C94C5000C94C5000C944F05AD
:100030000C94C5000C94C5000C94C5000C94C5002C
:100040000C94AD040C94C5000C941D050C94F7049D
:100050000C94C5000C94C5000C94C5000C94C5000C
:100060000C94C5000C94C50053504900424F5448AD
:100070000049324300554152540047524159000053
:10008000000000250028002B0000000000240027AD
:10009000002A000102040810204080010204081018
:1000A00020010204081020040404040404040402CF
:1000B00002020202020303030303035245414459AF
:1000C00020534C41382D47454E0045525220554E45
:1000D0004B4E4F574E00504F4E4720534C41382DFA
:1000E00047454E00475241595F5241544520004D0B
:1000F0004F444520004F4B20475241592052415414
:10010000452000455252204241445F475241595FC9
:100110005241544500554E4B4E4F574E004F4B20C9
:100120004D4F4445200045525220434D445F544FAB
:100130004F5F4C4F4E470000970811241FBECFEF72
:10014000D8E0DEBFCDBF11E0A0E0B1E0E0E9F3E12F
:1001500002C005900D92A437B107D9F722E0A4E7B9
:10016000B1E001C01D92AA36B207E1F710E0CDE977
:10017000D0E004C02197FE010E949209CC39D1073A
:10018000C9F70E949A050C94C6090C9400008230AD
:10019000910538F0880F991F880F991F05970197CF
:1001A000F1F70895AF92BF92CF92DF92EF92FF9254
:1001B0000F931F93CF93DF936C017B018B01040F8F
:1001C000151FEB015E01AE18BF08C017D10759F02B
:1001D0006991D601ED91FC910190F081E02DC6016D
:1001E0000995892B79F7C501DF91CF911F910F9167
:1001F000FF90EF90DF90CF90BF90AF900895FC01FB
:10020000538D448D252F30E0842F90E0821B930B7B
:10021000541710F0CF96089501970895FC01918D21
:10022000828D981761F0A28DAE0FBF2FB11D5D9624
:100230008C91928D9F5F9F73928F90E008958FEFC6
:100240009FEF0895FC01918D828D981731F0828D7A
:10025000E80FF11D858D90E008958FEF9FEF0895D1
:10026000FC01918D228D892F90E0805C9F4F821B35
:1002700091098F73992708958DEC91E00E943001C8
:1002800021E0892B09F420E0822F089580E090E09E
:10029000892B29F00E943C0181110C9400000895E3
:1002A000FC01A48DA80FB92FB11DA35ABF4F2C91EB
:1002B000848D90E001968F739927848FA689B789E2
:1002C0002C93A089B1898C91837080648C93938DD9
:1002D000848D981306C00288F389E02D80818F7D7C
:1002E00080830895EF92FF920F931F93CF93DF9334
:1002F000EC0181E0888F9B8D8C8D98131AC0E88962
:10030000F989808185FF15C09FB7F894EE89FF8930
:100310006083E889F98980818370806480839FBFCE
:1003200081E090E0DF91CF911F910F91FF90EF90CE
:100330000895F62E0B8D10E00F5F1F4F0F731127DE
:10034000E02E8C8D8E110CC00FB607FCFACFE88919
:10035000F989808185FFF5CFCE010E945001F1CF50
:10036000EB8DEC0FFD2FF11DE35AFF4FF0829FB78D
:10037000F8940B8FEA89FB8980818062CFCF0F933D
:100380001F93CF93DF938C01D0E0C0E0F801EC0F16
:10039000FD1F6491662341F08DEC91E00E94720193
:1003A000892B11F02196F2CFCE01DF91CF911F91D1
:1003B0000F910895CF93DF93EC01888D8823B9F0D6
:1003C000AA89BB89E889F9898C9185FD03C0808160
:1003D00086FD0DC00FB607FCF7CF8C9185FFF2CFDD
:1003E000808185FFEDCFCE010E945001E9CFDF91E2
:1003F000CF91089580910401823021F089E190E04D
:100400000C94C70081E0FBCF8F929F92AF92BF9276
:10041000CF92DF92EF92FF920F931F93CF93DF93D0
:100420008091000190910101A0910201B09103011E
:100430000097A105B10509F485C09C01AD0160E0FC
:1004400070E080E090E003E00E94500959016A01E9
:100450007B01E82F192F01E00E946B093C5D4B40A6
:100460005F4F6F4F7F4F8F4F9F4F0E2F0E94F308AC
:10047000E92F49015A016B01E82EAEEF0E9486096F
:100480002E3F3F4F410551056105710581059105DD
:1004900011F008F057C0E40121979401A501B601BD
:1004A0008E2D9E2F03E00E94500959016A017B01A5
:1004B0008C0120E034E244EF50E060E070E080E046
:1004C00090E00E94F30820930001309301014093D3
:1004D0000201509303012FB7F8948BB183708BB94D
:1004E00085B18C7F85B9109274019091740181E07F
:1004F000890F80937401892F8695892780959AB1F9
:100500009370382F330F330F932B9AB994B19C7F8C
:100510008295869586958370892B84B91092800088
:10052000109281001092850010928400D09389006F
:10053000C093880082E086BB9AE09093810080930C
:100540006F002FBFDF91CF911F910F91FF90EF9020
:10055000DF90CF90BF90AF909F908F900895FC0157
:100560002FB7F894A081B1818C919481892B8C93C1
:1005700094810280F381E02D8081662321F0982B05
:1005800090832FBF089590959823FACFDF92EF9232
:10059000FF920F931F93CF93DF93082FD62E809156
:1005A0000401C0E0843009F4C5E0D0E088E0E82E22
:1005B000F12C10E861E0802F812309F460E08CEADF
:1005C00091E00E94AF0261E08D2D812309F460E08B
:1005D00081EB91E00E94AF02CE010E94C70061E072
:1005E00087EA91E00E94AF02CE010E94C70060E05E
:1005F00087EA91E00E94AF02169581E0E81AF108BF
:10060000C9F6DF91CF911F910F91FF90EF90DF908E
:100610000895DC019FB7F894ED91FC91119720812A
:1006200014968C918095822380839FBF08950F93A9
:100630001F93CF93C82F8FB7F89410926F0010922A
:1006400081008FBF08E911E0C8010E9409030B5F18
:100650001F4F81E0003C1807B9F7C0930401C11196
:100660000EC00E9404021092C0011092C1011092AB
:10067000C2011092C301CF911F910F910895C33011
:10068000B9F52FB7F8948BB18F718BB985B18C7F89
:1006900085B9109275018091750191E0980F909342
:1006A000750180958F719AB19F71382F3295330FF4
:1006B000307E932B9AB994B19C7F869586958695CA
:1006C000892B84B9109280001092810010928500CD
:1006D0001092840083EF91E09093890080938800CA
:1006E00082E086BB9AE09093810080936F002FBFD9
:1006F000C350C230D8F460E087EA91E00E94AF02B4
:1007000061E08CEA91E00E94AF0261E081EB91E050
:100710000E94AF0261E086EB91E00E94AF0210926E
:10072000970160E08BEB91E00E94AF022FB7F89445
:100730008091C9019091CA01A091CB01B091CC01E7
:100740002FBF8896A11DB11D8093C0019093C10158
:10075000A093C201B093C3018ECFFC012FB7F894D0
:10076000A281B3818C919481909598239C93A081D0
:10077000B1818C919481892B8C932FBF0895FF9226
:100780000F931F93CF93DF93F82E062FC8E0D0E08E
:1007900010E88F2D812371F182EA91E00E94090314
:1007A0000E94FA018DE991E00E9409030E94FA017A
:1007B0008DE991E00E94AD031695219751F782EAE9
:1007C00091E00023E1F00E94AD030E94FA018DE95F
:1007D00091E00E9409030E94FA018DE991E00E94D4
:1007E000AD0382EA91E0DF91CF911F910F91FF90CD
:1007F0000C94090382EA91E00E94AD03D1CF0E94DC
:100800000903E3CFEF92FF920F931F93CF93DF93F0
:10081000E82E80910401C0EAD1E0813011F4CEE0ED
:10082000D0E088E991E00E94AD03CE010E94C700AC
:1008300010E000E0F12CC701002E02C095958795CD
:100840000A94E2F780FF22C088E991E00E94090340
:10085000CE010E94C7000F5F1F4F0830110559F7E6
:1008600088E991E00E940903CE010E94C700CE01F1
:100870000E94C700CE010E94C700CE01DF91CF9138
:100880001F910F91FF90EF900C94C70088E991E0C1
:100890000E94AD03DDCF8F929F92AF92BF920F93D4
:1008A0001F93CF93DF93CDB7DEB7A1970FB6F89420
:1008B000DEBF0FBECDBF19A2423008F44AE08E0160
:1008C0000F5D1F4F842E912CB12CA12CA5019401FA
:1008D0000E94C408E62FB901CA01EA3044F5E05D80
:1008E000D801EE938D01232B242B252B79F790E053
:1008F00080E0109769F0FD0101900020E9F7319741
:10090000AF014A1B5B0BBD018DEC91E00E94D20050
:10091000A1960FB6F894DEBF0FBECDBFDF91CF9189
:100920001F910F91BF90AF909F908F900895E95CB9
:10093000D7CF42E050E064E371E08DEC91E00C949D
:10094000D200CF93DF930E94BF01EC010E94990473
:100950008C0F9D1FDF91CF9108951F920F920FB6BC
:100960000F9211242F933F938F939F93AF93BF9335
:100970008091C9019091CA01A091CB01B091CC01A5
:100980003091C80123E0230F2D3758F50196A11DA2
:10099000B11D2093C8018093C9019093CA01A0930F
:1009A000CB01B093CC018091C4019091C501A0917D
:1009B000C601B091C7010196A11DB11D8093C4016C
:1009C0009093C501A093C601B093C701BF91AF91A9
:1009D0009F918F913F912F910F900FBE0F901F907D
:1009E000189526E8230F0296A11DB11DD2CF1F92A4
:1009F0000F920FB60F9211242F933F934F935F9353
:100A00006F937F938F939F93AF93BF93EF93FF93D6
:100A10008DEC91E00E945001FF91EF91BF91AF9159
:100A20009F918F917F916F915F914F913F912F9106
:100A30000F900FBE0F901F9018951F920F920FB638
:100A40000F9211242F938F939F93EF93FF93E09135
:100A5000DD01F091DE018081E091E301F091E4019C
:100A600082FD1BC090818091E6018F5F8F73209182
:100A7000E701821741F0E091E601F0E0E353FE4F19
:100A8000958F8093E601FF91EF919F918F912F9128
:100A90000F900FBE0F901F9018958081F4CF1F927A
:100AA0000F920FB60F9211242F938F939F938091E3
:100AB0000401811122C090917401892F86958927A4
:100AC00080959AB19370282F220F220F922B9AB9FA
:100AD00094B19C7F8295869586958370892B84B985
:100AE000809174018F5F809374019F918F912F91FA
:100AF0000F900FBE0F901F901895809104018330C6
:100B0000A1F78091750180FD13C080E19AB1906ECC
:100B10009AB994B12FE182278695869586959C7F18
:100B2000892B84B9809175018F5F80937501DDCF2A
:100B300080E0ECCF789484B5826084BD84B5816018
:100B400084BD85B5826085BD85B5816085BD809198
:100B50006E00816080936E00109281008091810010
:100B60008260809381008091810081608093810008
:100B7000809180008160809380008091B1008460CA
:100B80008093B1008091B00081608093B00080912B
:100B90007A00846080937A0080917A0082608093EA
:100BA0007A0080917A00816080937A0080917A0047
:100BB000806880937A001092C100E091DD01F0918D
:100BC000DE0182E08083E091D901F091DA011082A8
:100BD000E091DB01F091DC0180E180831092E5017E
:100BE000E091E101F091E20186E08083E091DF0194
:100BF000F091E001808180618083E091DF01F091DC
:100C0000E001808188608083E091DF01F091E00164
:100C1000808180688083E091DF01F091E001808134
:100C20008F7D8083C7E1D1E0A8E9B1E04FE151E0D9
:100C3000299130E0F901E955FF4F8491F901ED5612
:100C4000FF4FE4911496EC93149790E0880F991F4E
:100C5000FC01E757FF4F2591349111963C932E9359
:100C6000FC01E158FF4F8591949113969C938E93CC
:100C700012979FB7F8941296ED91FC9113972081EB
:100C800014968C911497809582238083ED91FC912A
:100C90001197208114968C911497809582238083DC
:100CA0009FBF15964C175D0709F0C2CF83E00E94E5
:100CB00017038BEB90E00E94A104C1E02AE0422ED2
:100CC000512C612C712C8DEC91E00E943001181692
:100CD00019060CF058C18DEC91E00E940E01E091D4
:100CE00096018D3019F08A3009F03BC1EE2359F39B
:100CF000F0E0EA58FE4F108206E711E0F80181911A
:100D00008F01882339F090E00E94A709F8013197FC
:100D10008083F4CF67E371E086E791E00E94AF093A
:100D2000892B09F44DC061E471E086E791E00E94EF
:100D3000AF09892B09F45BC06BE471E086E791E0B1
:100D40000E94AF09892B09F454C064E571E086E77D
:100D500091E00E94AF09892B09F44DC06DE571E067
:100D600086E791E00E94AF09892B09F446C04AE06A
:100D700050E06FE171E086E791E00E94B809892BAD
:100D8000F1F167E671E086E791E00E94AF09892BF7
:100D900009F0D9C08FEE90E00E94BF01E0910401FC
:100DA00085E191E0E53038F4F0E0EE0FFF1FE65DFD
:100DB000FE4F808191810E94A10484EE90E0B1C039
:100DC00080E00E9417038DE191E00E94BF01E09155
:100DD000040185E191E0E53038F4F0E0EE0FFF1F0B
:100DE000E65DFE4F808191810E94A104A9C081E04F
:100DF000E8CF82E0E6CF84E0E4CF83E0E2CF8091E9
:100E00008001882309F4BDCF00E811E0812C912CEA
:100E10005401F80181918F01882329F180538A3090
:100E200008F0AFCFC82ED12CF12CE12CC701B601B0
:100E30006095709580959095A30192010E94C408D9
:100E4000281539054A055B0508F49BCFAAE0B0E0F8
:100E5000A50194010E94E60846015701860E971EDF
:100E6000A81EB91ED6CF81149104A104B10409F4BF
:100E700088CF9401A50160E070E080E090E003E09D
:100E80000E94500959016A017B01E82F192F01E0E6
:100E90000E946B093C5D4B405F4F6F4F7F4F8F4F00
:100EA0009F4F0E2F0E94F30879018A01D62FB72F8A
:100EB000F82FE92FAEEF0E9486092E3F3F4F4105E4
:100EC0005105610571058105910521F018F083E058
:100ED00091E08ACF9701A8016D2F7B2F8F2F9E2F36
:100EE00003E00E94500959016A017B018C0120E056
:100EF00034E244EF50E060E070E080E090E00E9477
:100F0000F3082093000130930101409302015093B4
:100F1000030180910401811102C00E94040285EF47
:100F200090E00E94BF0160910001709101018091E9
:100F30000201909103014AE00E944B040E9499042F
:100F400010929601C0CE6EE671E086E791E00E94B5
:100F5000AF09892B19F486ED90E046CF8AEC90E03A
:100F600043CFEF3148F491E09E0F90939601F0E06B
:100F7000EA58FE4F8083A7CE1092960186E291E058
:100F80000E94A104A0CE2FB7F8948091C90190913E
:100F9000CA01A091CB01B091CC012FBF4091C001FB
:100FA0005091C1016091C2017091C3018C019D01FA
:100FB000041B150B260B370BB901A80177FD9FC049
:100FC00020910401213009F4A7C0223009F4A7C000
:100FD000243009F4A7C0233009F091C028E230E0A2
:100FE000820F931FA11DB11D8093C0019093C10179
:100FF000A093C201B093C301809104018D7F813021
:1010000061F485E50E94020485EA0E9402048FE4EF
:101010000E9402048BE40E94020480910401825029
:10102000823090F582EA91E00E9409038DE991E017
:101030000E9409030E94FA0182EA91E00E94AD0336
:101040000E94FA018DE991E00E94AD0361E080EA1F
:101050000E94BF0361E085EA0E94BF0360E08AE569
:101060000E94BF0382EA91E00E94AD030E94FA0150
:101070008DE991E00E9409030E94FA0182EA91E061
:101080000E9409030E94FA0180910401835082307A
:10109000B0F5609197016C27609397018BEB91E01D
:1010A0000E94AF0260E086EB91E00E94AF02809167
:1010B00004018430D1F585E090E00E94C70065EA24
:1010C00085E50E94C6026CE385EA0E94C60263ECD5
:1010D0008AE50E94C60261E086EB91E00E94AF02C1
:1010E00060E087EA91E00E94AF0261E08CEA91E063
:1010F0000E94AF0261E081EB91E00E94AF0280E0CC
:1011000090E0892B09F4DFCD0E943C01882309F48B
:10111000DACD0E940000D7CD21E030E061CF22E09F
:1011200030E05ECF24E130E05BCF80E0C5CFEDEC76
:10113000F1E01382128288EE93E0A0E0B0E08483B5
:101140009583A683B78389E091E09183808385ECC2
:1011500090E09587848784EC90E09787868780EC81
:1011600090E0918B808B81EC90E0938B828B82EC72
:1011700090E0958B848B86EC90E0978B868B118E1C
:10118000128E138E148E0895A1E21A2EAA1BBB1B79
:10119000FD010DC0AA1FBB1FEE1FFF1FA217B30743
:1011A000E407F50720F0A21BB30BE40BF50B661F59
:1011B000771F881F991F1A9469F76095709580951D
:1011C00090959B01AC01BD01CF0108950E94980943
:1011D000A59F900DB49F900DA49F800D911D11248B
:1011E0000895689401C0E8948F929F92CF93DF9303
:1011F0000E94FF08DF91CF919F908F9008958824DF
:101200009924F401E401B0E49F93AA279A158B0472
:101210009C04ED05FE05CF05D007A10798F4AD2F7E
:10122000DC2FCF2FFE2FE92D982C892E982F872F7A
:10123000762F652F542F432F322F2227B85031F7A6
:10124000BF9127C01B2EBF91BB27220F331F441F06
:10125000551F661F771F881F991F881C991CEE1F3A
:10126000FF1FCC1FDD1FAA1FBB1F8A149B04EC05A8
:10127000FD05CE05DF05A007B10748F08A189B08D9
:10128000EC09FD09CE09DF09A00BB10B21601A940E
:10129000E1F62EF49401AF01BE01CD01000C0895DA
:1012A000002E083090F0982F872F762F652F542F1F
:1012B000432F322F22270850F4CF220F331F441F11
:1012C000551F661F771F881F991F0A95B2F7002DBB
:1012D000089597FD1094002E083098F00850232FA1
:1012E000342F452F562F672F782F892F912DF4CF2C
:1012F0001594979587957795679557954795379561
:1013000027950A95AAF71124002D08950024A7FD1A
:1013100000942A0F301D401D501D601D701D801D42
:10132000901D0895EE0FFF1F0590F491E02D099494
:10133000A29FB001B39FC001A39F700D811D112416
:10134000911DB29F700D811D1124911D0895911161
:10135000089581568A5108F4805285580895FB01FA
:10136000DC018D91019080190110D9F3990B08953A
:10137000FB01DC014150504030F08D91019080190B
:1013800019F40020B9F7881B990B0895F894FFCF42
:101390001027000003000000007201D200FF00DAF5
:1013A0000130010E01220102030405060708094766
:1013B000524159205241544520007A007500710075
:1013C0006C0068000D0A004D4F44452047524159BA
:1013D000004D4F44452055415254004D4F44452047
:1013E000493243004D4F444520535049004D4F442E
:1013F0004520424F544800535441545553005049DE
:041400004E47000053
:00000001FF
